{
  "contractName": "Exchange",
  "abi": [
    {
      "inputs": [
        {
          "internalType": "address",
          "name": "_feeAccount",
          "type": "address"
        },
        {
          "internalType": "uint256",
          "name": "_feePercent",
          "type": "uint256"
        }
      ],
      "stateMutability": "nonpayable",
      "type": "constructor"
    },
    {
      "anonymous": false,
      "inputs": [
        {
          "indexed": false,
          "internalType": "uint256",
          "name": "_id",
          "type": "uint256"
        },
        {
          "indexed": false,
          "internalType": "address",
          "name": "_user",
          "type": "address"
        },
        {
          "indexed": false,
          "internalType": "address",
          "name": "_tokenGet",
          "type": "address"
        },
        {
          "indexed": false,
          "internalType": "uint256",
          "name": "_amountGet",
          "type": "uint256"
        },
        {
          "indexed": false,
          "internalType": "address",
          "name": "_tokenGive",
          "type": "address"
        },
        {
          "indexed": false,
          "internalType": "uint256",
          "name": "_amountGive",
          "type": "uint256"
        },
        {
          "indexed": false,
          "internalType": "uint256",
          "name": "_timestamp",
          "type": "uint256"
        }
      ],
      "name": "Cancel",
      "type": "event"
    },
    {
      "anonymous": false,
      "inputs": [
        {
          "indexed": false,
          "internalType": "address",
          "name": "_token",
          "type": "address"
        },
        {
          "indexed": false,
          "internalType": "address",
          "name": "_user",
          "type": "address"
        },
        {
          "indexed": false,
          "internalType": "uint256",
          "name": "_amount",
          "type": "uint256"
        },
        {
          "indexed": false,
          "internalType": "uint256",
          "name": "_balance",
          "type": "uint256"
        }
      ],
      "name": "Deposit",
      "type": "event"
    },
    {
      "anonymous": false,
      "inputs": [
        {
          "indexed": false,
          "internalType": "uint256",
          "name": "_id",
          "type": "uint256"
        },
        {
          "indexed": false,
          "internalType": "address",
          "name": "_user",
          "type": "address"
        },
        {
          "indexed": false,
          "internalType": "address",
          "name": "_tokenGet",
          "type": "address"
        },
        {
          "indexed": false,
          "internalType": "uint256",
          "name": "_amountGet",
          "type": "uint256"
        },
        {
          "indexed": false,
          "internalType": "address",
          "name": "_tokenGive",
          "type": "address"
        },
        {
          "indexed": false,
          "internalType": "uint256",
          "name": "_amountGive",
          "type": "uint256"
        },
        {
          "indexed": false,
          "internalType": "uint256",
          "name": "_timestamp",
          "type": "uint256"
        }
      ],
      "name": "Order",
      "type": "event"
    },
    {
      "anonymous": false,
      "inputs": [
        {
          "indexed": false,
          "internalType": "uint256",
          "name": "_id",
          "type": "uint256"
        },
        {
          "indexed": false,
          "internalType": "address",
          "name": "_user",
          "type": "address"
        },
        {
          "indexed": false,
          "internalType": "address",
          "name": "_tokenGet",
          "type": "address"
        },
        {
          "indexed": false,
          "internalType": "uint256",
          "name": "_amountGet",
          "type": "uint256"
        },
        {
          "indexed": false,
          "internalType": "address",
          "name": "_tokenGive",
          "type": "address"
        },
        {
          "indexed": false,
          "internalType": "uint256",
          "name": "_amountGive",
          "type": "uint256"
        },
        {
          "indexed": false,
          "internalType": "address",
          "name": "_userFill",
          "type": "address"
        },
        {
          "indexed": false,
          "internalType": "uint256",
          "name": "_timestamp",
          "type": "uint256"
        }
      ],
      "name": "Trade",
      "type": "event"
    },
    {
      "anonymous": false,
      "inputs": [
        {
          "indexed": false,
          "internalType": "address",
          "name": "_token",
          "type": "address"
        },
        {
          "indexed": false,
          "internalType": "address",
          "name": "_user",
          "type": "address"
        },
        {
          "indexed": false,
          "internalType": "uint256",
          "name": "_amount",
          "type": "uint256"
        },
        {
          "indexed": false,
          "internalType": "uint256",
          "name": "_balance",
          "type": "uint256"
        }
      ],
      "name": "Withdraw",
      "type": "event"
    },
    {
      "inputs": [],
      "name": "feeAccount",
      "outputs": [
        {
          "internalType": "address",
          "name": "",
          "type": "address"
        }
      ],
      "stateMutability": "view",
      "type": "function",
      "constant": true
    },
    {
      "inputs": [],
      "name": "feePercent",
      "outputs": [
        {
          "internalType": "uint256",
          "name": "",
          "type": "uint256"
        }
      ],
      "stateMutability": "view",
      "type": "function",
      "constant": true
    },
    {
      "inputs": [],
      "name": "orderCount",
      "outputs": [
        {
          "internalType": "uint256",
          "name": "",
          "type": "uint256"
        }
      ],
      "stateMutability": "view",
      "type": "function",
      "constant": true
    },
    {
      "inputs": [
        {
          "internalType": "uint256",
          "name": "",
          "type": "uint256"
        }
      ],
      "name": "orders",
      "outputs": [
        {
          "internalType": "uint256",
          "name": "id",
          "type": "uint256"
        },
        {
          "internalType": "address",
          "name": "user",
          "type": "address"
        },
        {
          "internalType": "address",
          "name": "tokenGet",
          "type": "address"
        },
        {
          "internalType": "uint256",
          "name": "amountGet",
          "type": "uint256"
        },
        {
          "internalType": "address",
          "name": "tokenGive",
          "type": "address"
        },
        {
          "internalType": "uint256",
          "name": "amountGive",
          "type": "uint256"
        },
        {
          "internalType": "uint256",
          "name": "timestamp",
          "type": "uint256"
        }
      ],
      "stateMutability": "view",
      "type": "function",
      "constant": true
    },
    {
      "inputs": [
        {
          "internalType": "uint256",
          "name": "",
          "type": "uint256"
        }
      ],
      "name": "ordersCancelled",
      "outputs": [
        {
          "internalType": "bool",
          "name": "",
          "type": "bool"
        }
      ],
      "stateMutability": "view",
      "type": "function",
      "constant": true
    },
    {
      "inputs": [
        {
          "internalType": "uint256",
          "name": "",
          "type": "uint256"
        }
      ],
      "name": "ordersFilled",
      "outputs": [
        {
          "internalType": "bool",
          "name": "",
          "type": "bool"
        }
      ],
      "stateMutability": "view",
      "type": "function",
      "constant": true
    },
    {
      "inputs": [
        {
          "internalType": "address",
          "name": "",
          "type": "address"
        },
        {
          "internalType": "address",
          "name": "",
          "type": "address"
        }
      ],
      "name": "tokens",
      "outputs": [
        {
          "internalType": "uint256",
          "name": "",
          "type": "uint256"
        }
      ],
      "stateMutability": "view",
      "type": "function",
      "constant": true
    },
    {
      "inputs": [],
      "name": "depositEther",
      "outputs": [],
      "stateMutability": "payable",
      "type": "function",
      "payable": true
    },
    {
      "inputs": [
        {
          "internalType": "uint256",
          "name": "_amount",
          "type": "uint256"
        }
      ],
      "name": "withdrawEther",
      "outputs": [],
      "stateMutability": "nonpayable",
      "type": "function"
    },
    {
      "inputs": [
        {
          "internalType": "address",
          "name": "_token",
          "type": "address"
        },
        {
          "internalType": "uint256",
          "name": "_amount",
          "type": "uint256"
        }
      ],
      "name": "depositToken",
      "outputs": [],
      "stateMutability": "nonpayable",
      "type": "function"
    },
    {
      "inputs": [
        {
          "internalType": "address",
          "name": "_token",
          "type": "address"
        },
        {
          "internalType": "uint256",
          "name": "_amount",
          "type": "uint256"
        }
      ],
      "name": "withdrawToken",
      "outputs": [],
      "stateMutability": "nonpayable",
      "type": "function"
    },
    {
      "inputs": [
        {
          "internalType": "address",
          "name": "_token",
          "type": "address"
        },
        {
          "internalType": "address",
          "name": "_user",
          "type": "address"
        }
      ],
      "name": "balanceOf",
      "outputs": [
        {
          "internalType": "uint256",
          "name": "",
          "type": "uint256"
        }
      ],
      "stateMutability": "view",
      "type": "function",
      "constant": true
    },
    {
      "inputs": [
        {
          "internalType": "address",
          "name": "_tokenGet",
          "type": "address"
        },
        {
          "internalType": "uint256",
          "name": "_amountGet",
          "type": "uint256"
        },
        {
          "internalType": "address",
          "name": "_tokenGive",
          "type": "address"
        },
        {
          "internalType": "uint256",
          "name": "_amountGive",
          "type": "uint256"
        }
      ],
      "name": "makeOrder",
      "outputs": [],
      "stateMutability": "nonpayable",
      "type": "function"
    },
    {
      "inputs": [
        {
          "internalType": "uint256",
          "name": "_id",
          "type": "uint256"
        }
      ],
      "name": "cancelOrder",
      "outputs": [],
      "stateMutability": "nonpayable",
      "type": "function"
    },
    {
      "inputs": [
        {
          "internalType": "uint256",
          "name": "_id",
          "type": "uint256"
        }
      ],
      "name": "fillOrder",
      "outputs": [],
      "stateMutability": "nonpayable",
      "type": "function"
    }
  ],
  "bytecode": "0x60806040523480156200001157600080fd5b50604051620024fc380380620024fc8339818101604052810190620000379190620000b4565b816000806101000a81548173ffffffffffffffffffffffffffffffffffffffff021916908373ffffffffffffffffffffffffffffffffffffffff16021790555080600181905550505062000167565b600081519050620000978162000133565b92915050565b600081519050620000ae816200014d565b92915050565b60008060408385031215620000c857600080fd5b6000620000d88582860162000086565b9250506020620000eb858286016200009d565b9150509250929050565b6000620001028262000109565b9050919050565b600073ffffffffffffffffffffffffffffffffffffffff82169050919050565b6000819050919050565b6200013e81620000f5565b81146200014a57600080fd5b50565b620001588162000129565b81146200016457600080fd5b50565b61238580620001776000396000f3fe6080604052600436106100e85760003560e01c806367b830ad1161008a5780639e281a98116100595780639e281a98146102bf578063a85c38ef146102e8578063c72abc501461032b578063f7888aec14610368576100e8565b806367b830ad146102385780637fd6f15c1461026157806398ea5fca1461028c5780639a5c90aa14610296576100e8565b80633bed33ce116100c65780633bed33ce1461017e578063508493bc146101a7578063514fcac7146101e457806365e17c9d1461020d576100e8565b806321168620146100ed5780632453ffa81461012a578063338b5dea14610155575b600080fd5b3480156100f957600080fd5b50610114600480360381019061010f9190611e7f565b6103a5565b6040516101219190611ffb565b60405180910390f35b34801561013657600080fd5b5061013f6103c5565b60405161014c9190612036565b60405180910390f35b34801561016157600080fd5b5061017c60048036038101906101779190611db7565b6103cb565b005b34801561018a57600080fd5b506101a560048036038101906101a09190611e7f565b61069f565b005b3480156101b357600080fd5b506101ce60048036038101906101c99190611d7b565b6108b2565b6040516101db9190612036565b60405180910390f35b3480156101f057600080fd5b5061020b60048036038101906102069190611e7f565b6108d7565b005b34801561021957600080fd5b50610222610a45565b60405161022f9190611f3b565b60405180910390f35b34801561024457600080fd5b5061025f600480360381019061025a9190611e7f565b610a69565b005b34801561026d57600080fd5b50610276610b32565b6040516102839190612036565b60405180910390f35b610294610b38565b005b3480156102a257600080fd5b506102bd60048036038101906102b89190611df3565b610d03565b005b3480156102cb57600080fd5b506102e660048036038101906102e19190611db7565b610efc565b005b3480156102f457600080fd5b5061030f600480360381019061030a9190611e7f565b61115e565b60405161032297969594939291906120cf565b60405180910390f35b34801561033757600080fd5b50610352600480360381019061034d9190611e7f565b611200565b60405161035f9190611ffb565b60405180910390f35b34801561037457600080fd5b5061038f600480360381019061038a9190611d7b565b611220565b60405161039c9190612036565b60405180910390f35b60066020528060005260406000206000915054906101000a900460ff1681565b60045481565b600073ffffffffffffffffffffffffffffffffffffffff168273ffffffffffffffffffffffffffffffffffffffff16141561043b576040517f08c379a000000000000000000000000000000000000000000000000000000000815260040161043290612016565b60405180910390fd5b8173ffffffffffffffffffffffffffffffffffffffff166323b872dd3330846040518463ffffffff1660e01b815260040161047893929190611f56565b602060405180830381600087803b15801561049257600080fd5b505af11580156104a6573d6000803e3d6000fd5b505050506040513d601f19601f820116820180604052508101906104ca9190611e56565b6104d357600080fd5b61056281600260008573ffffffffffffffffffffffffffffffffffffffff1673ffffffffffffffffffffffffffffffffffffffff16815260200190815260200160002060003373ffffffffffffffffffffffffffffffffffffffff1673ffffffffffffffffffffffffffffffffffffffff168152602001908152602001600020546112a790919063ffffffff16565b600260008473ffffffffffffffffffffffffffffffffffffffff1673ffffffffffffffffffffffffffffffffffffffff16815260200190815260200160002060003373ffffffffffffffffffffffffffffffffffffffff1673ffffffffffffffffffffffffffffffffffffffff168152602001908152602001600020819055507fdcbc1c05240f31ff3ad067ef1ee35ce4997762752e3a095284754544f4c709d7823383600260008773ffffffffffffffffffffffffffffffffffffffff1673ffffffffffffffffffffffffffffffffffffffff16815260200190815260200160002060003373ffffffffffffffffffffffffffffffffffffffff1673ffffffffffffffffffffffffffffffffffffffff168152602001908152602001600020546040516106939493929190611f8d565b60405180910390a15050565b61072e81600260008073ffffffffffffffffffffffffffffffffffffffff1673ffffffffffffffffffffffffffffffffffffffff16815260200190815260200160002060003373ffffffffffffffffffffffffffffffffffffffff1673ffffffffffffffffffffffffffffffffffffffff168152602001908152602001600020546112bd90919063ffffffff16565b600260008073ffffffffffffffffffffffffffffffffffffffff1673ffffffffffffffffffffffffffffffffffffffff16815260200190815260200160002060003373ffffffffffffffffffffffffffffffffffffffff1673ffffffffffffffffffffffffffffffffffffffff168152602001908152602001600020819055503373ffffffffffffffffffffffffffffffffffffffff166108fc829081150290604051600060405180830381858888f193505050501580156107f4573d6000803e3d6000fd5b507ff341246adaac6f497bc2a656f546ab9e182111d630394f0c57c710a59a2cb56760003383600260008073ffffffffffffffffffffffffffffffffffffffff1673ffffffffffffffffffffffffffffffffffffffff16815260200190815260200160002060003373ffffffffffffffffffffffffffffffffffffffff1673ffffffffffffffffffffffffffffffffffffffff168152602001908152602001600020546040516108a79493929190611f8d565b60405180910390a150565b6002602052816000526040600020602052806000526040600020600091509150505481565b60006003600083815260200190815260200160002090508060010160009054906101000a900473ffffffffffffffffffffffffffffffffffffffff1673ffffffffffffffffffffffffffffffffffffffff163373ffffffffffffffffffffffffffffffffffffffff161461094a57600080fd5b8181600001541461095a57600080fd5b60016005600084815260200190815260200160002060006101000a81548160ff0219169083151502179055507f77de1da0be5f2d3b110d05c6694e5c4ff2d9da7cd23d84353ecf78c7b5acec61828260010160009054906101000a900473ffffffffffffffffffffffffffffffffffffffff168360020160009054906101000a900473ffffffffffffffffffffffffffffffffffffffff1684600301548560040160009054906101000a900473ffffffffffffffffffffffffffffffffffffffff1686600501548760060154604051610a3997969594939291906120cf565b60405180910390a15050565b60008054906101000a900473ffffffffffffffffffffffffffffffffffffffff1681565b60008110158015610a7b575060045481105b610a8457600080fd5b6005600082815260200190815260200160002060009054906101000a900460ff1615610aaf57600080fd5b6006600082815260200190815260200160002060009054906101000a900460ff1615610ada57600080fd5b6000600360008381526020019081526020016000209050610afe81600001546112d3565b6001600660008360000154815260200190815260200160002060006101000a81548160ff0219169083151502179055505050565b60015481565b610bc734600260008073ffffffffffffffffffffffffffffffffffffffff1673ffffffffffffffffffffffffffffffffffffffff16815260200190815260200160002060003373ffffffffffffffffffffffffffffffffffffffff1673ffffffffffffffffffffffffffffffffffffffff168152602001908152602001600020546112a790919063ffffffff16565b600260008073ffffffffffffffffffffffffffffffffffffffff1673ffffffffffffffffffffffffffffffffffffffff16815260200190815260200160002060003373ffffffffffffffffffffffffffffffffffffffff1673ffffffffffffffffffffffffffffffffffffffff168152602001908152602001600020819055507fdcbc1c05240f31ff3ad067ef1ee35ce4997762752e3a095284754544f4c709d760003334600260008073ffffffffffffffffffffffffffffffffffffffff1673ffffffffffffffffffffffffffffffffffffffff16815260200190815260200160002060003373ffffffffffffffffffffffffffffffffffffffff1673ffffffffffffffffffffffffffffffffffffffff16815260200190815260200160002054604051610cf99493929190611f8d565b60405180910390a1565b60004290506040518060e0016040528060045481526020013373ffffffffffffffffffffffffffffffffffffffff1681526020018673ffffffffffffffffffffffffffffffffffffffff1681526020018581526020018473ffffffffffffffffffffffffffffffffffffffff168152602001838152602001828152506003600060045481526020019081526020016000206000820151816000015560208201518160010160006101000a81548173ffffffffffffffffffffffffffffffffffffffff021916908373ffffffffffffffffffffffffffffffffffffffff16021790555060408201518160020160006101000a81548173ffffffffffffffffffffffffffffffffffffffff021916908373ffffffffffffffffffffffffffffffffffffffff1602179055506060820151816003015560808201518160040160006101000a81548173ffffffffffffffffffffffffffffffffffffffff021916908373ffffffffffffffffffffffffffffffffffffffff16021790555060a0820151816005015560c082015181600601559050507f9d33853d43e3607b4cc01fdc78338ff2dca6fef7db9232dae6d3eb55fbc3b109600454338787878787604051610ed197969594939291906120cf565b60405180910390a1610eef60016004546112a790919063ffffffff16565b6004819055505050505050565b610f8b81600260008573ffffffffffffffffffffffffffffffffffffffff1673ffffffffffffffffffffffffffffffffffffffff16815260200190815260200160002060003373ffffffffffffffffffffffffffffffffffffffff1673ffffffffffffffffffffffffffffffffffffffff168152602001908152602001600020546112bd90919063ffffffff16565b600260008473ffffffffffffffffffffffffffffffffffffffff1673ffffffffffffffffffffffffffffffffffffffff16815260200190815260200160002060003373ffffffffffffffffffffffffffffffffffffffff1673ffffffffffffffffffffffffffffffffffffffff168152602001908152602001600020819055508173ffffffffffffffffffffffffffffffffffffffff1663a9059cbb33836040518363ffffffff1660e01b8152600401611046929190611fd2565b602060405180830381600087803b15801561106057600080fd5b505af1158015611074573d6000803e3d6000fd5b505050506040513d601f19601f820116820180604052508101906110989190611e56565b6110a157600080fd5b7ff341246adaac6f497bc2a656f546ab9e182111d630394f0c57c710a59a2cb567823383600260008773ffffffffffffffffffffffffffffffffffffffff1673ffffffffffffffffffffffffffffffffffffffff16815260200190815260200160002060003373ffffffffffffffffffffffffffffffffffffffff1673ffffffffffffffffffffffffffffffffffffffff168152602001908152602001600020546040516111529493929190611f8d565b60405180910390a15050565b60036020528060005260406000206000915090508060000154908060010160009054906101000a900473ffffffffffffffffffffffffffffffffffffffff16908060020160009054906101000a900473ffffffffffffffffffffffffffffffffffffffff16908060030154908060040160009054906101000a900473ffffffffffffffffffffffffffffffffffffffff16908060050154908060060154905087565b60056020528060005260406000206000915054906101000a900460ff1681565b6000600260008473ffffffffffffffffffffffffffffffffffffffff1673ffffffffffffffffffffffffffffffffffffffff16815260200190815260200160002060008373ffffffffffffffffffffffffffffffffffffffff1673ffffffffffffffffffffffffffffffffffffffff16815260200190815260200160002054905092915050565b600081836112b5919061214f565b905092915050565b600081836112cb9190612230565b905092915050565b60006003600083815260200190815260200160002090506000611318606461130a6001548560050154611d1090919063ffffffff16565b611d2690919063ffffffff16565b90506113f58260030154600260008560020160009054906101000a900473ffffffffffffffffffffffffffffffffffffffff1673ffffffffffffffffffffffffffffffffffffffff1673ffffffffffffffffffffffffffffffffffffffff16815260200190815260200160002060008560010160009054906101000a900473ffffffffffffffffffffffffffffffffffffffff1673ffffffffffffffffffffffffffffffffffffffff1673ffffffffffffffffffffffffffffffffffffffff168152602001908152602001600020546112a790919063ffffffff16565b600260008460020160009054906101000a900473ffffffffffffffffffffffffffffffffffffffff1673ffffffffffffffffffffffffffffffffffffffff1673ffffffffffffffffffffffffffffffffffffffff16815260200190815260200160002060008460010160009054906101000a900473ffffffffffffffffffffffffffffffffffffffff1673ffffffffffffffffffffffffffffffffffffffff1673ffffffffffffffffffffffffffffffffffffffff168152602001908152602001600020819055506115988260050154600260008560040160009054906101000a900473ffffffffffffffffffffffffffffffffffffffff1673ffffffffffffffffffffffffffffffffffffffff1673ffffffffffffffffffffffffffffffffffffffff16815260200190815260200160002060008560010160009054906101000a900473ffffffffffffffffffffffffffffffffffffffff1673ffffffffffffffffffffffffffffffffffffffff1673ffffffffffffffffffffffffffffffffffffffff168152602001908152602001600020546112bd90919063ffffffff16565b600260008460040160009054906101000a900473ffffffffffffffffffffffffffffffffffffffff1673ffffffffffffffffffffffffffffffffffffffff1673ffffffffffffffffffffffffffffffffffffffff16815260200190815260200160002060008460010160009054906101000a900473ffffffffffffffffffffffffffffffffffffffff1673ffffffffffffffffffffffffffffffffffffffff1673ffffffffffffffffffffffffffffffffffffffff168152602001908152602001600020819055506117178260030154600260008560020160009054906101000a900473ffffffffffffffffffffffffffffffffffffffff1673ffffffffffffffffffffffffffffffffffffffff1673ffffffffffffffffffffffffffffffffffffffff16815260200190815260200160002060003373ffffffffffffffffffffffffffffffffffffffff1673ffffffffffffffffffffffffffffffffffffffff168152602001908152602001600020546112bd90919063ffffffff16565b600260008460020160009054906101000a900473ffffffffffffffffffffffffffffffffffffffff1673ffffffffffffffffffffffffffffffffffffffff1673ffffffffffffffffffffffffffffffffffffffff16815260200190815260200160002060003373ffffffffffffffffffffffffffffffffffffffff1673ffffffffffffffffffffffffffffffffffffffff168152602001908152602001600020819055506118728260050154600260008560040160009054906101000a900473ffffffffffffffffffffffffffffffffffffffff1673ffffffffffffffffffffffffffffffffffffffff1673ffffffffffffffffffffffffffffffffffffffff16815260200190815260200160002060003373ffffffffffffffffffffffffffffffffffffffff1673ffffffffffffffffffffffffffffffffffffffff168152602001908152602001600020546112a790919063ffffffff16565b600260008460040160009054906101000a900473ffffffffffffffffffffffffffffffffffffffff1673ffffffffffffffffffffffffffffffffffffffff1673ffffffffffffffffffffffffffffffffffffffff16815260200190815260200160002060003373ffffffffffffffffffffffffffffffffffffffff1673ffffffffffffffffffffffffffffffffffffffff168152602001908152602001600020819055506119ea81600260008560040160009054906101000a900473ffffffffffffffffffffffffffffffffffffffff1673ffffffffffffffffffffffffffffffffffffffff1673ffffffffffffffffffffffffffffffffffffffff16815260200190815260200160002060008060009054906101000a900473ffffffffffffffffffffffffffffffffffffffff1673ffffffffffffffffffffffffffffffffffffffff1673ffffffffffffffffffffffffffffffffffffffff168152602001908152602001600020546112a790919063ffffffff16565b600260008460040160009054906101000a900473ffffffffffffffffffffffffffffffffffffffff1673ffffffffffffffffffffffffffffffffffffffff1673ffffffffffffffffffffffffffffffffffffffff16815260200190815260200160002060008060009054906101000a900473ffffffffffffffffffffffffffffffffffffffff1673ffffffffffffffffffffffffffffffffffffffff1673ffffffffffffffffffffffffffffffffffffffff16815260200190815260200160002081905550611b8681600260008560040160009054906101000a900473ffffffffffffffffffffffffffffffffffffffff1673ffffffffffffffffffffffffffffffffffffffff1673ffffffffffffffffffffffffffffffffffffffff16815260200190815260200160002060008560010160009054906101000a900473ffffffffffffffffffffffffffffffffffffffff1673ffffffffffffffffffffffffffffffffffffffff1673ffffffffffffffffffffffffffffffffffffffff168152602001908152602001600020546112bd90919063ffffffff16565b600260008460040160009054906101000a900473ffffffffffffffffffffffffffffffffffffffff1673ffffffffffffffffffffffffffffffffffffffff1673ffffffffffffffffffffffffffffffffffffffff16815260200190815260200160002060008460010160009054906101000a900473ffffffffffffffffffffffffffffffffffffffff1673ffffffffffffffffffffffffffffffffffffffff1673ffffffffffffffffffffffffffffffffffffffff168152602001908152602001600020819055507f0dddf4182dc0fc1a311cb75f049c97403c6b8a99cf6b2229a36e7c526acb3f8182600001548360010160009054906101000a900473ffffffffffffffffffffffffffffffffffffffff168460020160009054906101000a900473ffffffffffffffffffffffffffffffffffffffff1685600301548660040160009054906101000a900473ffffffffffffffffffffffffffffffffffffffff1687600501543342604051611d03989796959493929190612051565b60405180910390a1505050565b60008183611d1e91906121d6565b905092915050565b60008183611d3491906121a5565b905092915050565b600081359050611d4b8161230a565b92915050565b600081519050611d6081612321565b92915050565b600081359050611d7581612338565b92915050565b60008060408385031215611d8e57600080fd5b6000611d9c85828601611d3c565b9250506020611dad85828601611d3c565b9150509250929050565b60008060408385031215611dca57600080fd5b6000611dd885828601611d3c565b9250506020611de985828601611d66565b9150509250929050565b60008060008060808587031215611e0957600080fd5b6000611e1787828801611d3c565b9450506020611e2887828801611d66565b9350506040611e3987828801611d3c565b9250506060611e4a87828801611d66565b91505092959194509250565b600060208284031215611e6857600080fd5b6000611e7684828501611d51565b91505092915050565b600060208284031215611e9157600080fd5b6000611e9f84828501611d66565b91505092915050565b611eb181612264565b82525050565b611ec081612276565b82525050565b6000611ed360228361213e565b91507f457468657273206e6f7420616c6c6f77656420746f206265206465706f73697460008301527f65640000000000000000000000000000000000000000000000000000000000006020830152604082019050919050565b611f35816122a2565b82525050565b6000602082019050611f506000830184611ea8565b92915050565b6000606082019050611f6b6000830186611ea8565b611f786020830185611ea8565b611f856040830184611f2c565b949350505050565b6000608082019050611fa26000830187611ea8565b611faf6020830186611ea8565b611fbc6040830185611f2c565b611fc96060830184611f2c565b95945050505050565b6000604082019050611fe76000830185611ea8565b611ff46020830184611f2c565b9392505050565b60006020820190506120106000830184611eb7565b92915050565b6000602082019050818103600083015261202f81611ec6565b9050919050565b600060208201905061204b6000830184611f2c565b92915050565b600061010082019050612067600083018b611f2c565b612074602083018a611ea8565b6120816040830189611ea8565b61208e6060830188611f2c565b61209b6080830187611ea8565b6120a860a0830186611f2c565b6120b560c0830185611ea8565b6120c260e0830184611f2c565b9998505050505050505050565b600060e0820190506120e4600083018a611f2c565b6120f16020830189611ea8565b6120fe6040830188611ea8565b61210b6060830187611f2c565b6121186080830186611ea8565b61212560a0830185611f2c565b61213260c0830184611f2c565b98975050505050505050565b600082825260208201905092915050565b600061215a826122a2565b9150612165836122a2565b9250827fffffffffffffffffffffffffffffffffffffffffffffffffffffffffffffffff0382111561219a576121996122ac565b5b828201905092915050565b60006121b0826122a2565b91506121bb836122a2565b9250826121cb576121ca6122db565b5b828204905092915050565b60006121e1826122a2565b91506121ec836122a2565b9250817fffffffffffffffffffffffffffffffffffffffffffffffffffffffffffffffff0483118215151615612225576122246122ac565b5b828202905092915050565b600061223b826122a2565b9150612246836122a2565b925082821015612259576122586122ac565b5b828203905092915050565b600061226f82612282565b9050919050565b60008115159050919050565b600073ffffffffffffffffffffffffffffffffffffffff82169050919050565b6000819050919050565b7f4e487b7100000000000000000000000000000000000000000000000000000000600052601160045260246000fd5b7f4e487b7100000000000000000000000000000000000000000000000000000000600052601260045260246000fd5b61231381612264565b811461231e57600080fd5b50565b61232a81612276565b811461233557600080fd5b50565b612341816122a2565b811461234c57600080fd5b5056fea264697066735822122040100dfa06ae8bc7d50aa503733a11d0d9e8161de514efc7a595c7b228f3e13664736f6c63430008000033",
  "immutableReferences": {},
  "source": "// SPDX-License-Identifier: MIT\n\npragma solidity >= 0.8.0 <= 0.8.4;\n\nimport './Token.sol';\nimport \"../../node_modules/@openzeppelin/contracts/utils/math/SafeMath.sol\";\n\ncontract Exchange {\n\n\tusing SafeMath for uint;\n\n\taddress public feeAccount;\n\tuint256 public feePercent;\n\taddress constant ETHER = address(0); // this allows to store Ether in the `tokens` mapping\n\t//      token   =>        (user    => balance)\n\tmapping(address => mapping(address => uint256)) public tokens;\n\tmapping(uint256 => _Order) public orders;\n\tuint256 public orderCount;\n\tmapping(uint256 => bool) public ordersCancelled;\n\tmapping(uint256 => bool) public ordersFilled;\n\n\tstruct _Order {\n\t\tuint256 id;\n\t\taddress user;\n\t\taddress tokenGet;\n\t\tuint256 amountGet;\n\t\taddress tokenGive;\n\t\tuint256 amountGive;\n\t\tuint256 timestamp;\n\t}\n\n\tevent Deposit(address _token, address _user, uint256 _amount, uint256 _balance);\n\tevent Withdraw(address _token, address _user, uint256 _amount, uint256 _balance);\n\tevent Order (\n\t\tuint256 _id,\n\t\taddress _user,\n\t\taddress _tokenGet,\n\t\tuint256 _amountGet,\n\t\taddress _tokenGive,\n\t\tuint256 _amountGive,\n\t\tuint256 _timestamp\n\t);\n\tevent Cancel(\n\t\tuint256 _id,\n\t\taddress _user,\n\t\taddress _tokenGet,\n\t\tuint256 _amountGet,\n\t\taddress _tokenGive,\n\t\tuint256 _amountGive,\n\t\tuint256 _timestamp\n\t);\n\tevent Trade (\n\t\tuint256 _id,\n\t\taddress _user,\n\t\taddress _tokenGet,\n\t\tuint256 _amountGet,\n\t\taddress _tokenGive,\n\t\tuint256 _amountGive,\n\t\taddress _userFill,\n\t\tuint256 _timestamp\n\t);\n\n\tconstructor (address _feeAccount, uint256 _feePercent) {\n\t\tfeeAccount = _feeAccount;\n\t\tfeePercent = _feePercent;\n\t}\n\n\tfunction depositEther() payable public {\n\t\ttokens[ETHER][msg.sender] = tokens[ETHER][msg.sender].add(msg.value);\n\t\temit Deposit(ETHER, msg.sender, msg.value, tokens[ETHER][msg.sender]);\n\t}\n\n\tfunction withdrawEther(uint256 _amount) public {\n\t\ttokens[ETHER][msg.sender] = tokens[ETHER][msg.sender].sub(_amount);\n\t\tpayable(address(msg.sender)).transfer(_amount);\n\t\temit Withdraw(ETHER, msg.sender, _amount, tokens[ETHER][msg.sender]);\n\t}\n\n\tfunction depositToken(address _token, uint256 _amount) public {\n\t\trequire(_token != ETHER, \"Ethers not allowed to be deposited\");\n\t\trequire(Token(_token).transferFrom(msg.sender, address(this), _amount));\n\t\ttokens[_token][msg.sender] = tokens[_token][msg.sender].add(_amount);\n\t\temit Deposit(_token, msg.sender, _amount, tokens[_token][msg.sender]);\n\t}\n\n\tfunction withdrawToken(address _token, uint256 _amount) public {\n\t\ttokens[_token][msg.sender] = tokens[_token][msg.sender].sub(_amount);\n\t\trequire(Token(_token).transfer(msg.sender, _amount));\n\t\temit Withdraw(_token, msg.sender, _amount, tokens[_token][msg.sender]);\n\t}\n\n\tfunction balanceOf(address _token, address _user) public view returns(uint256) {\n\t\treturn tokens[_token][_user];\n\t}\n\n\tfunction makeOrder(address _tokenGet, uint256 _amountGet, address _tokenGive, uint256 _amountGive) public {\n\t\tuint256 timestamp = block.timestamp;\n\t\torders[orderCount] = _Order(orderCount, msg.sender, _tokenGet, _amountGet, _tokenGive, _amountGive, timestamp);\n\t\temit Order(orderCount, msg.sender, _tokenGet, _amountGet, _tokenGive, _amountGive, timestamp);\n\t\torderCount = orderCount.add(1);\n\t}\n\n\tfunction cancelOrder(uint256 _id) public {\n\t\t_Order storage order = orders[_id];\n\t\trequire(msg.sender == order.user);\n\t\trequire(order.id == _id);\n\t\tordersCancelled[_id] = true;\n\t\temit Cancel(\n\t\t\t_id,\n\t\t\torder.user,\n\t\t\torder.tokenGet,\n\t\t\torder.amountGet,\n\t\t\torder.tokenGive,\n\t\t\torder.amountGive,\n\t\t\torder.timestamp\n\t\t);\n\t}\n\n\tfunction fillOrder(uint256 _id) public {\n\t\trequire(_id >= 0 && _id < orderCount);\n\t\trequire(!ordersCancelled[_id]);\n\t\trequire(!ordersFilled[_id]);\n\t\t_Order storage order = orders[_id];\n\t\ttrade(order.id);\n\t\tordersFilled[order.id] = true;\n\t}\n\n\tfunction trade(uint256 _id) internal {\n\n\t\t_Order storage order = orders[_id];\n\n\t\tuint256 feeAmount = order.amountGive.mul(feePercent).div(100);\n\n\t\ttokens[order.tokenGet][order.user] = tokens[order.tokenGet][order.user].add(order.amountGet);\n\t\ttokens[order.tokenGive][order.user] = tokens[order.tokenGive][order.user].sub(order.amountGive);\n\n\t\ttokens[order.tokenGet][msg.sender] = tokens[order.tokenGet][msg.sender].sub(order.amountGet);\n\t\ttokens[order.tokenGive][msg.sender] = tokens[order.tokenGive][msg.sender].add(order.amountGive);\n\n\t\ttokens[order.tokenGive][feeAccount] = tokens[order.tokenGive][feeAccount].add(feeAmount);\n\t\ttokens[order.tokenGive][order.user] = tokens[order.tokenGive][order.user].sub(feeAmount);\n\n\t\temit Trade (\n\t\t\torder.id,\n\t\t\torder.user,\n\t\t\torder.tokenGet,\n\t\t\torder.amountGet,\n\t\t\torder.tokenGive,\n\t\t\torder.amountGive,\n\t\t\tmsg.sender,\n\t\t\tblock.timestamp\n\t\t);\n\t}\n}",
  "sourcePath": "/mnt/data/codes/decentralized-exchange/src/contracts/Exchange.sol",
  "compiler": {
    "name": "solc",
    "version": "0.8.0+commit.c7dfd78e.Emscripten.clang"
  },
  "schemaVersion": "3.4.1",
  "updatedAt": "2021-08-04T06:21:48.204Z",
  "networkType": "ethereum",
  "devdoc": {
    "kind": "dev",
    "methods": {},
    "version": 1
  },
  "userdoc": {
    "kind": "user",
    "methods": {},
    "version": 1
  }
}